:02000004080AE8
:1000000000000A08B4130A080000060006000501F3
:0800100004027E05000000005F
:040018007C0F0A0847
:10001C0009480A4908B5884205D0094A824202D0EB
:10002C00121A00F061FF0748074A0021121A00F06B
:10003C0066FF064808BD00BF0000002024130A0814
:10004C006800002068000020DC050020DC05002092
:10005C0070B500F015FB074B074C1E46E41AA408BC
:10006C000025A54204D056F8253098470135F8E70D
:10007C0070BD00BFE4120A0818130A0800F07EB81D
:10008C0008B500F08BFABDE8084000F0BBBA00F0F0
:10009C00ADB90078B0FA80F04009704701230370C5
:1000AC007047000010B50C4600F0E6FB174900F055
:1000BC0006FA00F0E1FB217800F0F2F92378312BFD
:1000CC0012D100F0D9FB124900F0F9F900F0D4FB81
:1000DC00104900F0F4F900F0CFFB0F4900F0EFF9F4
:1000EC0000F0CAFB0D490CE0322B07D140F6B830BA
:1000FC0000F034FA00F0C0FB094902E000F0BCFB50
:10010C000849BDE8104000F0DAB900BF900F0A08AA
:10011C00A10F0A08C20F0A08CD0F0A08D70F0A0848
:10012C0000100A080A100A0808B500F0A5FB0E49D1
:10013C0000F0C5F940F6B83000F010FA00F09CFB66
:10014C000A4900F0BCF900F097FB094900F0B7F937
:10015C0000F092FB074900F0B2F900F08DFBBDE80E
:10016C000840054900F098B91C100A082C100A0820
:10017C0045100A0857100A0864100A0807B500232E
:10018C00019300931A460449044800F017F903B090
:10019C005DF804EBFFF7C8BFB1000A0879100A0834
:1001AC0000F000B808B5024B1B681B68019308BD32
:1001BC00B001060808B5024B1B68DB69019308BD4A
:1001CC00B401060808B5024B1B685B68019308BDB7
:1001DC009C01060808B5024B1B685B69019308BDBE
:1001EC009C01060808B5024B1B681B6B019308BDEC
:1001FC00D001060808B5024B1B689B69019308BD2A
:10020C00C401060808B5024B1B685B6A019308BD64
:10021C00C401060808B5024B1B689B6A019308BD14
:10022C00C401060808B5024B1B68DB6A019308BDC4
:10023C00C401060808B5024B1B681B6B019308BD73
:10024C00C401060808B5024B1B685B6B019308BD23
:10025C00C401060808B5024B1B681B6C019308BD52
:10026C00C401060808B5024B1B681B68019308BD46
:10027C00D801060808B5024B1B681B69019308BD21
:10028C00D801060808B5024B1B685B69019308BDD1
:10029C00D801060808B5024B1B689B69019308BD81
:1002AC00D801060808B5024B1B68DB69019308BD31
:1002BC00D801060808B5024B1B681B6A019308BDE0
:1002CC00D801060808B5024B1B689B6C019308BD4E
:1002DC00C001060808B5024B1B685B68019308BD9A
:1002EC00A401060808B5024B1B685B69019308BDA5
:1002FC00A401060808B5034B1B68D3F89030019392
:10030C0008BD0000A401060808B5034B1B68D3F810
:10031C009C30019308BD0000A401060808B5024BEF
:10032C001B685B68019308BDC801060808B5024B41
:10033C001B689B68019308BDC801060808B5024BF1
:10034C001B68DB68019308BDC801060808B5024BA1
:10035C001B681B69019308BDC801060808B5024B50
:10036C001B685B69019308BDC801060808B5024B00
:10037C001B689B69019308BDC801060808B5024BB0
:10038C001B68DB69019308BDC801060808B5024B60
:10039C001B681B6A019308BDC801060808B5024B0F
:1003AC001B681B6B019308BDC801060808B5024BFE
:1003BC001B685B6B019308BDC801060808B5024BAE
:1003CC001B685B6A019308BDCC01060808B5024B9B
:1003DC001B68DB6B019308BDCC01060808B5024B0A
:1003EC001B681B68019308BDA001060808B5024BE9
:1003FC001B685B68019308BDA0010608704710B527
:10040C000446102100F017FC204610BD70B50446C0
:10041C000E46074B0025036040F80C5FFFF7E2FE29
:10042C0030462671FFF7C6FEA560204670BD00BFA2
:10043C008C100A084FF6FF72034B0020187058807E
:10044C009A80FFF747BF00BF6C000020F8B5064646
:10045C000D468F180024BD420CD0336815F8011BD3
:10046C009B6830469847002801DB0444F3E7002CD6
:10047C0008BF04462046F8BD70B505460C46084634
:10048C0049B100F06DFD2B68024621462846BDE8B7
:10049C007040DB68184770BD08B5FFF7EDFF08BD6D
:1004AC0003689B68184738B50D210546FFF7F8FF20
:1004BC000A2104462846FFF7F3FF204438BD38B51F
:1004CC000546FFF7D9FF04462846FFF7ECFF20440A
:1004DC0038BD012A98BF0A2230B50B468BB00021DB
:1004EC008DF824100DF12304B3FBF2F505FB123348
:1004FC00DBB2092B94BF30333733DBB2214604F81F
:10050C0001392B46002DEFD1FFF7B6FF0BB030BDF4
:10051C0010B422B90368C9B29B6810BC1847D2B298
:10052C0010BCFFF7D6BFFFF7F3BF00231A461946DE
:10053C004068FFF713BF0000014A024B1A60704776
:10054C000A110A0874000020024B1A68024B1A6048
:10055C00704700BF00000020780000200021FFF74A
:10056C00C1BE10B58368044613B1032201469847F7
:10057C00204610BD10B50446FFF7F3FF204610BD12
:10058C00034800238360034A034900F04FBB00BFBC
:10059C007C0000206800002081050A0870470000DC
:1005AC0008B5144B33B100F067F903681B69984721
:1005BC00002816DC104B33B100F018FA03681B69E5
:1005CC009847002810DC0D4B0BB1AFF300800C4B9F
:1005DC007BB100F08DF903681B699847002806DC95
:1005EC0008BDAFF30080E5E7AFF30080EBE7AFF3B6
:1005FC00008008BD000000000000000000000000AA
:10060C000000000008B5FFF7CBFFFFF7E3FD014B3F
:10061C00186008BD200500200248034A0349121A3D
:10062C0000F062BC004002400440024020130A0863
:10063C0007B5002300931A466FF07701FFF764FEAD
:10064C0003B05DF804FB000007B543880A2B08D003
:10065C00502B09D1094B1B683BB103B05DF804EB7F
:10066C001847FFF7E5FF06E0002300931A466FF0EA
:10067C007701FFF749FE03B05DF804FB8C00002006
:10068C0038B5104C104D2368AB42104B0CBF0122F7
:10069C0000221A7002D0FFF7BFFF2560FFF792FD12
:1006AC00044600F035FC0A4B13B12046AFF3008032
:1006BC0000210748FFF78AFEBDE8384000210548B5
:1006CC00FFF718BE004002401E1C279A9000002025
:1006DC000000000055060A08704710B504461821A2
:1006EC0000F0A9FA204610BDF8B50F4600F1080637
:1006FC00051D002416F8011D0A223846FFF713FFCA
:10070C00AE42044407D0002CF4D02E213846FFF71B
:10071C00C7FE0444EEE72046F8BD000010B50446C1
:10072C00044B112240F8043B002100F0E8FB20466A
:10073C0010BD00BFAC110A080346074A10B543F8B8
:10074C00042B01F1100251F8044B914243F8044B75
:10075C00F9D10A781A7010BDAC110A08024A41602E
:10076C000260042202757047AC110A0810B59DF89E
:10077C00084044EA032343EA024242EA01610423AB
:10078C004160037510BD000037B5044D05609DF840
:10079C0018500095FFF7EAFF03B030BDAC110A0802
:1007AC0041747047704708B50021007CFFF772FD5B
:1007BC0030EA200028BF4FF0FF3008BD08B50121FA
:1007CC00007CFFF767FD30EA200028BF4FF0FF30B8
:1007DC0008BD08B5007CFFF755FD20EAE07008BDA8
:1007EC0008B5007CFFF746FD20EAE07008BD007CF0
:1007FC00FFF760BD10B50446142100F01CFA20462A
:10080C0010BD38B50446007C0D46FFF73BFD0028B3
:10081C0001DC607C28B12946207CFFF743FD20EAEF
:10082C00E07038BD10B50446002363604FF47A7352
:10083C00A360054B084623600123217463741146A1
:10084C00FFF710FD204610BDC0110A0810B5044674
:10085C001422002100F053FB054B20466360054B2E
:10086C00E36040F2011323818123238210BD00BF7A
:10087C00190100209800002030B50E4D87B001A85A
:10088C00FFF7E4FF296811F0010410D12846FFF7A7
:10089C0000FC60B101AA21460748FFF7C3FF2846B8
:1008AC00FFF7FCFB054A0649034800F0BFF9024874
:1008BC0007B030BD940000201C020020680000200E
:1008CC00B1070A0810B504461422002100F017FBEA
:1008DC00054B20466360054BE36040F20113238116
:1008EC008123238210BD00BFCC02002034020020E3
:1008FC0010B50E4C86B001A8FFF7E4FF2368DB07A8
:10090C0010D42046FFF7C5FB60B101AA01210848AD
:10091C00FFF788FF2046FFF7C1FB064A064904484B
:10092C0000F084F9024806B010BD00BF3002002070
:10093C00B802002068000020B1070A087047417413
:10094C00704708B5007CFFF785FC20EAE07008BD15
:10095C0008B5007CFFF75EFC20EAE07008BD08B526
:10096C00007CFFF767FC30EA200028BF4FF0FF3017
:10097C0008BD08B5007CFFF755FC30EA200028BF05
:10098C004FF0FF3008BD007CFFF75CBC10B504468F
:10099C00142100F050F9204610BD70B5457C04467A
:1009AC000E4625B9007CFFF755FC002805DD3146C5
:1009BC00207CBDE87040FFF725BC284670BD0000C8
:1009CC0010B5044608461146002262604FF47A7254
:1009DC00A260054A20742260012262741A46FFF755
:1009EC0009FC204610BD00BFF0110A0838B50C4DAB
:1009FC00296811F0010411D12846FFF74AFB68B1B0
:100A0C00084A2146084B0948FFF7DAFF2846FFF74A
:100A1C0045FB074A0749054800F008F9034838BD6B
:100A2C00680400206C040020E4030020D0030020A4
:100A3C006800002049090A08002211464068FFF7A7
:100A4C0085BCF0B5164689B011220F46044600212C
:100A5C0003A800F054FA304600F082FA0025009505
:100A6C0081B27B6803AA3046FFF72CFC20B12946E3
:100A7C002046FFF773FE03E003A92046FFF75CFE58
:100A8C00204609B0F0BD002211464068FFF77EBC3D
:100A9C00002211464068FFF789BC00224068FFF72E
:100AAC007DBC002281F001014068FFF767BC002388
:100ABC001A4619464068FFF759BC00221146406897
:100ACC00FFF734BC002202214068FFF737BC00233B
:100ADC001A464068FFF722BC024B04225A60024AB5
:100AEC001A607047F004002020120A0800231A46EE
:100AFC004068FFF713BC002202214068FFF71EBCC0
:100B0C00002211464068FFF711BC002211464068D4
:100B1C00FFF71CBC00231A4619464068FFF71EBCA1
:100B2C0000231A4619464068FFF720BC002281F0CA
:100B3C0001014068FFF722BC00224068FFF72EBC81
:100B4C00002211464068FFF731BC00221146406874
:100B5C00FFF71CBC70B516468EB0044608A8FFF70C
:100B6C00DDFD1122002103A800F0C9F9304600F088
:100B7C00F7F900250A4B009581B25B6803AA304651
:100B8C00FFF7A0FB20B129462046FFF7E7FD03E065
:100B9C0003A92046FFF7D0FD20460EB070BD00BF64
:100BAC00F0040020024B034A1A6000225A6070477E
:100BBC00F804002054120A0870B50C4C0C4E0D4D64
:100BCC0000212046FFF722FC20460B4C32462946DA
:100BDC0000F02CF801212046FFF718FC324629467C
:100BEC002046BDE8704000F021B800BF0005002091
:100BFC006800002009040A081005002013B5084CF1
:100C0C0000231A46194600932046FFF7BDFD2046E7
:100C1C00044A054902B0BDE8104000F007B800BF17
:100C2C002405002068000020E5060A080B46014652
:100C3C00184600F04BB9FFF72ABA0000184B1A6897
:100C4C00D1075CBF01221A60164B1A68D2075CBF31
:100C5C0001221A60144B1A68D0075CBF01221A607B
:100C6C00124B1A68D1075CBF01221A60104B1A682C
:100C7C00D2075CBF01221A600E4B1A68D0075CBF0A
:100C8C0001221A600C4B1A68D1075CBF01221A6052
:100C9C000A4B1A68D2075CBF01221A60704700BF6A
:100CAC005805002054050020500500204C0500205C
:100CBC004805002044050020400500203C0500208C
:100CCC00244B1A68D0075CBF01221A60224B1A68A9
:100CDC00D1075CBF01221A60204B1A68D2075CBF97
:100CEC0001221A601E4B1A68D0075CBF01221A60E1
:100CFC001C4B1A68D1075CBF01221A601A4B1A6888
:100D0C00D2075CBF01221A60184B1A68D0075CBF6F
:100D1C0001221A60164B1A68D1075CBF01221A60B7
:100D2C00144B1A68D2075CBF01221A60124B1A6866
:100D3C00D0075CBF01221A60104B1A68D1075CBF48
:100D4C0001221A600E4B1A68D2075CBF01221A608E
:100D5C00704700BF88050020840500208005002016
:100D6C007C0500207805002074050020700500200B
:100D7C006C0500206805002064050020600500203B
:100D8C005C050020244B1A68D0075CBF01221A6056
:100D9C00224B1A68D1075CBF01221A60204B1A68DB
:100DAC00D2075CBF01221A601E4B1A68D0075CBFC9
:100DBC0001221A601C4B1A68D1075CBF01221A6011
:100DCC001A4B1A68D2075CBF01221A60184B1A68BA
:100DDC00D0075CBF01221A60164B1A68D1075CBFA2
:100DEC0001221A60144B1A68D2075CBF01221A60E8
:100DFC00124B1A68D0075CBF01221A60104B1A689C
:100E0C00D1075CBF01221A600E4B1A68D2075CBF77
:100E1C0001221A60704700BFB8050020B4050020FD
:100E2C00B0050020AC050020A8050020A40500207A
:100E3C00A00500209C0500209805002094050020AA
:100E4C00900500208C050020184B1A68D1075CBF58
:100E5C0001221A60164B1A68D2075CBF01221A6075
:100E6C00144B1A68D0075CBF01221A60124B1A6827
:100E7C00D1075CBF01221A60104B1A68D2075CBF05
:100E8C0001221A600E4B1A68D0075CBF01221A604F
:100E9C000C4B1A68D1075CBF01221A600A4B1A6806
:100EAC00D2075CBF01221A60704700BFD805002032
:100EBC00D4050020D0050020CC050020C80500205A
:100ECC00C4050020C0050020BC05002010B5054C51
:100EDC0013462CB10A4601460220AFF3008010BD28
:100EEC00204610BD0000000010B5431E0A4491427C
:100EFC0004D011F8014B03F8014FF8E710BD03467D
:100F0C000244934202D003F8011BFAE77047000039
:100F1C0038B5124B05461C68A36BD3B91820FFF7E4
:100F2C005DFA43F20E33A06303804AF6CD3343805F
:100F3C0041F2342383804EF26D63C3804DF6EC6333
:100F4C000381052343810B23838101220023C0E904
:100F5C000423A36B00221D615A6138BD640000207C
:100F6C00034613F8012B002AFBD1181A01387047DD
:100F7C001D000A085D000A0889000A088D000A088D
:100F8C000000000053656C6563746564204F7074D9
:100F9C00696F6E2000446F20796F752077616E74D5
:100FAC00206D696C6B20696E20796F757220636F90
:100FBC00666665653F00412E2059657320506C7A3A
:100FCC0000422E204E6F2054687800432E204F6E26
:100FDC00207365636F6E642074686F756768742026
:100FEC004920646F6E2774206E65656420636F669C
:100FFC006665650061696768742063796100696E74
:10100C0076616C696420696E70757420736D68000C
:10101C00436F66666565212056302E30332E3000C6
:10102C00446F20796F752077616E7420736F6D65D6
:10103C0020636F666665653F00312E2049204E4562
:10104C00454420434F464645452100322E20756DC0
:10105C00206E6F207468780053656C65637420791A
:10106C006F7572206F7074696F6E3A20006D656ECB
:10107C00755F3534350000000000000000000000F2
:10108C0009040A080B040A0862617564005365724E
:10109C0069616C0055534253657269616C3100741F
:1010AC0079706500706172616D00636D64006964D4
:1010BC0000686E64007374726D0066696C74006C09
:1010CC00766C0061646448616E646C657200726574
:1010DC006D6F766548616E646C657200656E756DDA
:1010EC0048616E646C657273004A534F4E53747250
:1010FC0065616D4C6F6748616E646C657200617000
:10110C007000253031307520005D20002564002CE6
:10111C00200028293A2000205B00636F6465203D85
:10112C00200025690064657461696C73203D2000A2
:10113C000D0A0066006C6E00666E00636F646500DD
:10114C0064657461696C006E6F6E650074726163C6
:10115C006500696E666F007761726E006572726F02
:10116C00720070616E696300616C6C005A00252B13
:10117C003033643A253032750025592D256D2D25D7
:10118C00645425483A254D3A2553257A00617363FA
:10119C0074696D6500000000000000000000000094
:1011AC00F5060A08E5060A08E7060A08000000002A
:1011BC0000000000B1070A0801080A080F080A0815
:1011CC0059040A08ED070A08B3070A08C9070A08F0
:1011DC00FB070A08DF070A08AD070A080000000031
:1011EC000000000049090A0899090A08A7090A0819
:1011FC0059040A085D090A087F090A086B090A08DC
:10120C0093090A084B090A084F090A080000000054
:10121C0000000000DB0A0A08D10A0A08C70A0A08FB
:10122C00450A0A0837050A08BB0A0A08AF0A0A0861
:10123C00A70A0A089D0A0A08930A0A084F0A0A080C
:10124C000000000000000000F90A0A08030B0A085D
:10125C000D0B0A08170B0A08210B0A082D0B0A089C
:10126C00390B0A08450B0A084D0B0A08570B0A08DC
:10127C00610B0A08000000000000000000000000E4
:10128C000000000000000000000000000000000052
:10129C000000000000000000000000000000000042
:1012AC000000000000000000000000000000000032
:1012BC000000000000000000000000000000000022
:1012CC000000000000000000000000000000000012
:1012DC000000000043000000AD010A0841040A08A8
:1012EC0045050A0855050A088D050A08E50A0A0885
:1012FC00B10B0A08C50B0A08090C0A08490C0A08A4
:10130C00CD0C0A08910D0A08550E0A0800000000C1
:04131C0000000000CD
:0413200000000000C9
:1013240099110A080000000080120A08A0120A0895
:10133400C0120A08000000000000000000000000C5
:1013440000000000E0120A08000000000000000095
:101354000000000000000000000000000000000089
:101364000000000000000000000000000000000079
:101374000000000000000000000000000000000069
:0813840000000000040000203D
:10138C00FFFFFFFF00000102030405060708090A1E
:10139C000B0C0D0E0F101112131415161718191A19
:0813AC001B1C1D1E1F20280060
:0413B4007856341221
:04000005080A001CC9
:00000001FF
